:040000005EEF0BF0B4
:0F0F0000000200010025640D0A00256420000096
:100F10003F50D96EDA6ADFCFF6FF0F0EF76E000E84
:100F2000F86E0800F550250AD8A499EF07F09BEF5A
:100F300007F05AEF08F03F50D96EDA6ADF2A000E48
:100F40002A6E000E296E29C02DF02B682C683F50A8
:100F5000D96EDA6ADF50436E43C0F6FF0F0EF76EAC
:100F6000000EF86E0800F550640AD8B4BAEF07F026
:100F7000BCEF07F0CCEF07F043C0F6FF0F0EF76EA3
:100F8000000EF86E0800F550690AD8A4CAEF07F001
:100F9000CCEF07F054EF08F04050D96EDA6A020E39
:100FA000DF26DF5CD96EDA6ADECF44F0DECF45F0B3
:100FB0003F50D96EDA6A4328DF6E200E486E45BE78
:100FC000E4EF07F0E7EF07F0010EE8EF07F0000E9F
:100FD000426E48064850010FD96EDA6A44C032F0BA
:100FE00045C033F0000E356E0A0E346EF0EC09F099
:100FF00032C038F033C039F079EC0BF03850300F94
:10100000DF6E44C032F045C033F0000E356E0A0E7C
:10101000346E8EEC09F032C044F033C045F04450D9
:101020004510D8B416EF08F018EF08F020EF08F0DC
:101030004850D8A41EEF08F020EF08F0E9EF07F0C1
:101040004850D8B426EF08F028EF08F049EF08F030
:101050004250D8B42EEF08F030EF08F049EF08F016
:1010600048064850010FD96EDA6A2D0EDF6E49EF3F
:1010700008F04850010FD96EDA6ADF50416E4150D6
:10108000346E356A3DC036F03EC037F029EC09F0C9
:10109000482A200E4818D8A450EF08F052EF08F064
:1010A00039EF08F06FEF08F03F50D96EDA6ADF2AA7
:1010B0006FEF08F03F50D96EDA6ADFCFF6FF0F0E00
:1010C000F76E000EF86E0800F550346E356A3DC0BC
:1010D00036F03EC037F029EC09F054EF08F012006A
:1010E000D8EC0BF093EC0BF0000E48EC0AF0D8ECC7
:1010F0000BF08288000E48EC0AF08298D00E526EF7
:10110000CA0EE82EFED7522EFCD7EF0E0001606FFC
:10111000600E326E000E346E010E336E15EC0BF065
:10112000090E536E1E0E526EE40EE82EFED7522E9E
:10113000FCD7532EFAD700D08288FDEC0BF02E6E30
:10114000050E4E6E2EC04FF0506AB3EC0BF0829835
:10115000D00E526ECA0EE82EFED7522EFCD7ED0EE0
:101160000001606F600E326E000E346E010E336E41
:1011700015EC0BF0090E536E1E0E526EE40EE82EA7
:10118000FED7522EFCD7532EFAD700D08288FDEC22
:101190000BF02E6E050E4E6E2EC04FF0506AB3EC63
:1011A0000BF08298D00E526ECA0EE82EFED7522E49
:1011B000FCD7ED0E0001606F600E326E000E346ED3
:1011C000010E336E15EC0BF0090E536E1E0E526EAF
:1011D000E40EE82EFED7522EFCD7532EFAD700D0BD
:1011E0008288FDEC0BF02E6E050E4E6E2EC04FF079
:1011F000506AB3EC0BF08298D00E526ECA0EE82EF5
:10120000FED7522EFCD7ED0E0001606F600E326EDD
:10121000000E346E010E336E15EC0BF0090E536E9A
:101220001E0E526EE40EE82EFED7522EFCD7532E21
:10123000FAD700D08288FDEC0BF02E6E050E4E6EB4
:101240002EC04FF0506AB3EC0BF07DEF08F000EFCA
:1012500000F036503710D8B430EF09F032EF09F013
:101260003BEF09F036503710D8A439EF09F03BEFC7
:1012700009F040EF09F03450F8EC0BF08DEF09F075
:1012800020EE0AF03650D9263750DA22DE50DE1032
:10129000D8B44DEF09F04FEF09F06AEF09F020EEF6
:1012A0000AF03650D9263750DA2210EE03F03650C5
:1012B000E1263750E222DE50E65CE650800A3C6EC2
:1012C000DE50800A3C58D8B068EF09F06AEF09F0A8
:1012D0008DEF09F020EE03F03650D9263750DA2290
:1012E000DECF38F0DDCF39F036C0D9FF37C0DAFFB6
:1012F000DECF3AF0DDCF3BF038503A24D96E39508A
:101300003B20DA6E34C0DFFF20EE03F03650D926E2
:101310003750DA22DE2A000EDD221200000E376E70
:1013200035BE97EF09F095EF09F09DEF09F0346CA9
:10133000351ED8B0352A010E376E33BEA4EF09F042
:10134000A2EF09F0AAEF09F0326C331ED8B0332AAD
:10135000010E371A000E396E000E386E34503510FB
:10136000D8B4B5EF09F0B7EF09F0DFEF09F0010EDF
:10137000366EBFEF09F0D89034363536362A35AEA2
:10138000C4EF09F0C6EF09F0BBEF09F0D89038368A
:1013900039363450325C35503358D8A0D2EF09F08A
:1013A000D4EF09F0D9EF09F03450325E3550335A9A
:1013B0003880D89035323432362EC6EF09F03750A7
:1013C000D8B4E5EF09F0E7EF09F0EBEF09F0386C7E
:1013D000391ED8B0392A38C032F039C033F0120083
:1013E000000E376E33BEF9EF09F0F7EF09F0FFEFAB
:1013F00009F0326C331ED8B0332A010E376E35BE79
:1014000006EF0AF004EF0AF00AEF0AF0346C351E1A
:10141000D8B0352A34503510D8B411EF0AF013EF94
:101420000AF037EF0AF0010E366E1BEF0AF0D89083
:1014300034363536362A35AE20EF0AF022EF0AF080
:1014400017EF0AF03450325C35503358D8A02BEFE8
:101450000AF02DEF0AF031EF0AF03450325E3550C9
:10146000335AD89035323432362E22EF0AF03750C4
:10147000D8B43DEF0AF03FEF0AF043EF0AF0326CC8
:10148000331ED8B0332A32C032F033C033F01200EA
:10149000356E95BA4EEF0AF050EF0AF09FEF0AF062
:1014A0003550040DF3CF32F0010E32263250010FC9
:1014B000336E33C0F6FF0F0EF76E000EF86E0800A5
:1014C000F5CF94FF3550040DF350010F326E32C04A
:1014D000F6FF0F0EF76E000EF86E0800F5CF95FFC1
:1014E000000E966E3550040DF3CF32F0020E322608
:1014F0003250010F336E33C0F6FF0F0EF76E000E41
:10150000F86E0800F5CF92FF3550040DF3CF32F09E
:10151000030E32263250010F336E33C0F6FF0F0E2A
:10152000F76E000EF86E0800F5CF34F0343A34460A
:10153000344689503418BF0B3418896E958A1200CE
:10154000000E866E000E856E000E826E000E836E9B
:10155000000E846E070E8B6EE70E876EBF0E886ED0
:101560009F0E896E9E0E8A6E9C0E0F01216F8F0E4C
:101570001C6FBF0E146F070E296FF70E0C6F000E55
:10158000206F000E286F000E136F000E0B6F000E01
:101590001B6F000E276F000E0A6F000E126F000EF9
:1015A0001A6F000E1F6F0969116919691E69070E0C
:1015B000266F0869106918691D690F0E256F160ED0
:1015C0000E01B26F0B0EF06F0B0EFA6F100EF76F6D
:1015D0000F0EF86F190E886F140EB36F1200080EFD
:1015E0000E019A6F900E986F240E996F820E966F6F
:1015F000060E976F000E326E000E336E000E346EC4
:10160000EAEC0BF0000E326E000E336E000E346EFC
:10161000E3EC0BF0000E326E000E336E000E346EF3
:10162000F1EC0BF0000E316E120032C035F02DEFF0
:101630000BF03550D96EDA6ADF50916E0E01C8A1F9
:1016400024EF0BF026EF0BF01EEF0BF0C891355096
:10165000D96EDA6A91CFDFFF352A3306D8A0340677
:10166000332806E13428D8A438EF0BF03AEF0BF01A
:1016700019EF0BF012004BC04DF049EF0BF049C0D1
:101680003DF04AC03EF04D0E3F6E4CC040F088EC3D
:1016900007F04DC0F6FF0F0EF76E000EF86E080053
:1016A000F5500009D8A457EF0BF059EF0BF03FEFBE
:1016B0000BF0000E4A6E000E496E1200FE0EF66E22
:1016C000170EF76E000EF86E0900F5CF5DF00900F9
:1016D000F5CF5EF000EE60F0640EEE6AE806FDE124
:1016E00000EE01F0310EEE6AE806FDE1000170EF58
:1016F00008F039BE7EEF0BF080EF0BF086EF0BF0B9
:1017000038C038F039C039F092EF0BF038C03AF0F9
:1017100039C03BF03A1E3B1E3A4A3B2A3AC038F0E9
:101720003BC039F01200160E0E01B26F140EB36FEB
:101730000F0EF86F100EF76F000E946E020E956E7E
:10174000010E926E899C959A1200000E0E01DC6FBC
:10175000000EDD6F000EDE6F000EDF6F000EE06F1B
:10176000000EE16F12004F0E516E000E496E000E1A
:101770004A6E4EC04BF0510E4C6E3BEC0BF012001B
:10178000326E0E01C8ADC7EF0BF0C9EF0BF0C1EF21
:101790000BF032C095FE1200600E0E01D36F000EEA
:1017A000D56F000ED76F080ED96F000ED86F1200DC
:1017B000A5EC0BF093EC0BF0A0EC0AF0CCEC0BF0EA
:1017C000EFEC0AF0120032C057F033C058F034C0CA
:1017D00059F0120032C05AF033C05BF034C05CF0F4
:1017E000120032C054F033C055F034C056F012002D
:1017F000336E3350C0EC0BF0120091501200C00851
:020000040030CA
:0C0000008CFFFFFF9FFFFFFFFFFFFFFFD3
:00000001FF
